:1008F1005363616E2052464944204361726400543F
:1009010061672049443A005363616E204E657874F3
:040911002E2E2E0058
:100800001208A51209667BFF7A0879F11208CC124A
:10081000097EEF64026003BF0AF5E4F51312097E56
:1008200074082513F8A6070513E513C3940A40EDD1
:10083000E4F512F51312097E0513E513C394034082
:10084000F47F011209157BFF7A0979001208CC7F29
:10085000C01209157B007A0079081208CC7FD07E7F
:10086000071208857F011209157BFF7A09790812A2
:0408700008CC809B95
:0C096600759850758920758DFDD28E2289
:08097E003098FDC298AF9922E8
:1008A5007F147E001208857F021209157F28120920
:1008B500157F0C1209157F061209157F01120915FE
:0708C5007F027E000208859E
:100915008F14C2B2E514120875C2B3120881E5142A
:0C092500120874C2B37F027E0002088535
:100931008F17D2B2E517120875C2B3120881E517F5
:0C094100120874C2B37F027E0002088519
:1008CC008B148A158916AB14AA15A91612094D603A
:1008DC00130516E5167002051514F912094DFF12D1
:0508EC00093180E22249
:10087400C454F0FFE5A0540F4FF5A0D2B37F017E1E
:010884000073
:10088500E4FDFCC3ED9FEC9E5015E4FBFA0BBB00A9
:0F089500010ABA04F8BBFBF50DBD00010C80E4AD
:0108A4002231
:0300000002097280
:0C097200787FE4F6D8FD758117020800BC
:10094D00BB010689828A83E0225002E722BBFE02A8
:09095D00E32289828A83E49322DB
:00000001FF
