:1008E00050726573656E7400202D205072657365BB
:1008F0006E740D0A00496E76616C69642043617202
:10090000640054727920416761696E00556E6B6EA8
:100910006F776E202D20496E76616C69640D0A0038
:100920005363616E20596F75722043617264004198
:100930007474656E64616E63652053797374656D5C
:1009400000496E697469616C697A696E672E2E2E32
:1009500000333130303034413743323530003445A4
:100960003030373534443235353300333130303080
:10097000344641463033460033313030303441372D
:10098000353243300052616468696B6100536168BD
:0F099000696C0041726A756E005072697961007E
:100AFC008F18C2B2E518120A55C2B3120A61E51872
:0C0B0C00120A54C2B37F027E00020A6588
:100B18008F1BD2B2E51B120A55C2B3120A61E51B3C
:0C0B2800120A54C2B37F027E00020A656C
:100AB0007F327E00120A657F02120AFC7F28120A2A
:100AC000FC7F0C120AFC7F06120AFC7F01120AFC52
:070AD0007F057E00020A65AC
:060A85007BFF7A0879E016
:100A8B008B188A19891AAB18AA19A91A120B346078
:100A9B0013051AE51A7002051914F9120B34FF121B
:050AAB000B1880E2229F
:0C0B4D007F01120AFC7F057E00020A6591
:0C0B5900758920758DFD759850D28E2294
:080B71003098FDC298AF9922F3
:080B79008F993099FDC2992209
:100AD7008B188A19891AAB18AA19A91A120B34602C
:100AE70013051AE51A7002051914F9120B34FF12CF
:050AF7000B7980E222F2
:100A5400C454F0FFE5A0540F4FF5A0D2B37F027E3B
:010A64000091
:100A6500E4FDFCC3ED9FEC9E5015E4FBFA0BBB00C7
:0F0A7500010AEB647B4A70F50DBD00010C80E4B3
:010A8400224F
:06099F00AB15AA16A91712
:1009A5008B188A19891AAB18AA19A91A120B34FFC0
:1009B5006028AB1BAA1CA91D120B34601D6F6002B9
:1009C500C3227401251AF51AE43519F519740125A0
:1009D5001DF51DE4351CF51C80CCAB1BAA1CA91DFF
:1009E500120B34FFAB18AA19A91A120B34B5070359
:0509F500D38001C322C4
:100800008B158A168917120B4D751BFF751C097500
:100810001D5112099F501A7BFF7A097985120A8BA4
:100820007FC0120AFC120A857BFF7A0979850208CB
:10083000A4751BFF751C09751D5E12099F50197B5D
:10084000FF7A09798D120A8B7FC0120AFC120A8581
:100850007BFF7A09798D804C751BFF751C09751D0E
:100860006B12099F50197BFF7A097993120A8B7FCB
:10087000C0120AFC120A857BFF7A097993802575DC
:100880001BFF751C09751D7812099F7BFF50207A8C
:10089000097999120A8B7FC0120AFC120A857BFF24
:1008A0007A097999120AD77BFF7A0879E8801B7A4E
:1008B0000879F5120A8B7FC0120AFC7BFF7A09794E
:1008C00002120A8B7BFF7A09790C120AD77FB87E55
:1008D0000B120A65120B4D7BFF7A097920020A8BF5
:1009FA00120AB0120B597BFF7A09792F120A8B7FE0
:100A0A00C0120AFC7BFF7A097941120A8B7FD07ED9
:100A1A0007120A65120B4D7BFF7A097920120A8B9D
:100A2A00309804C29880F9E4FE120B7174082EF80B
:100A3A00A6070EBE0CF3E4F514FB7A007908120837
:0A0A4A00007FE87E03120A6580CAEF
:03000000020B658B
:0C0B6500787FE4F6D8FD75811D0209FAC6
:100B3400BB010689828A83E0225002E722BBFE02BF
:090B4400E32289828A83E49322F2
:00000001FF
